{"abi":[{"type":"constructor","inputs":[{"name":"_asset","type":"address","internalType":"contract IERC20"}],"stateMutability":"nonpayable"},{"type":"function","name":"addReward","inputs":[{"name":"amount","type":"uint256","internalType":"uint256"}],"outputs":[],"stateMutability":"nonpayable"},{"type":"function","name":"assetsOf","inputs":[{"name":"user","type":"address","internalType":"address"}],"outputs":[{"name":"","type":"uint256","internalType":"uint256"}],"stateMutability":"view"},{"type":"function","name":"currentRatio","inputs":[],"outputs":[{"name":"","type":"uint256","internalType":"uint256"}],"stateMutability":"view"},{"type":"function","name":"deposit","inputs":[{"name":"assets","type":"uint256","internalType":"uint256"}],"outputs":[{"name":"shares","type":"uint256","internalType":"uint256"}],"stateMutability":"nonpayable"},{"type":"function","name":"owner","inputs":[],"outputs":[{"name":"","type":"address","internalType":"address"}],"stateMutability":"view"},{"type":"function","name":"previewDeposit","inputs":[{"name":"assets","type":"uint256","internalType":"uint256"}],"outputs":[{"name":"shares","type":"uint256","internalType":"uint256"}],"stateMutability":"view"},{"type":"function","name":"previewWithdraw","inputs":[{"name":"shares","type":"uint256","internalType":"uint256"}],"outputs":[{"name":"assets","type":"uint256","internalType":"uint256"}],"stateMutability":"view"},{"type":"function","name":"renounceOwnership","inputs":[],"outputs":[],"stateMutability":"nonpayable"},{"type":"function","name":"sharesOf","inputs":[{"name":"","type":"address","internalType":"address"}],"outputs":[{"name":"","type":"uint256","internalType":"uint256"}],"stateMutability":"view"},{"type":"function","name":"totalAssets","inputs":[],"outputs":[{"name":"","type":"uint256","internalType":"uint256"}],"stateMutability":"view"},{"type":"function","name":"totalShares","inputs":[],"outputs":[{"name":"","type":"uint256","internalType":"uint256"}],"stateMutability":"view"},{"type":"function","name":"transferOwnership","inputs":[{"name":"newOwner","type":"address","internalType":"address"}],"outputs":[],"stateMutability":"nonpayable"},{"type":"function","name":"withdraw","inputs":[{"name":"shares","type":"uint256","internalType":"uint256"}],"outputs":[{"name":"assets","type":"uint256","internalType":"uint256"}],"stateMutability":"nonpayable"},{"type":"function","name":"withdrawAll","inputs":[],"outputs":[{"name":"assets","type":"uint256","internalType":"uint256"}],"stateMutability":"nonpayable"},{"type":"event","name":"Deposit","inputs":[{"name":"user","type":"address","indexed":true,"internalType":"address"},{"name":"assets","type":"uint256","indexed":false,"internalType":"uint256"},{"name":"shares","type":"uint256","indexed":false,"internalType":"uint256"}],"anonymous":false},{"type":"event","name":"OwnershipTransferred","inputs":[{"name":"previousOwner","type":"address","indexed":true,"internalType":"address"},{"name":"newOwner","type":"address","indexed":true,"internalType":"address"}],"anonymous":false},{"type":"event","name":"RewardAdded","inputs":[{"name":"amount","type":"uint256","indexed":false,"internalType":"uint256"}],"anonymous":false},{"type":"event","name":"Withdraw","inputs":[{"name":"user","type":"address","indexed":true,"internalType":"address"},{"name":"assets","type":"uint256","indexed":false,"internalType":"uint256"},{"name":"shares","type":"uint256","indexed":false,"internalType":"uint256"}],"anonymous":false},{"type":"error","name":"InsufficientShares","inputs":[]},{"type":"error","name":"OwnableInvalidOwner","inputs":[{"name":"owner","type":"address","internalType":"address"}]},{"type":"error","name":"OwnableUnauthorizedAccount","inputs":[{"name":"account","type":"address","internalType":"address"}]},{"type":"error","name":"ReentrancyGuardReentrantCall","inputs":[]},{"type":"error","name":"SafeERC20FailedOperation","inputs":[{"name":"token","type":"address","internalType":"address"}]},{"type":"error","name":"ZeroAmount","inputs":[]},{"type":"error","name":"ZeroShares","inputs":[]}],"bytecode":{"object":"0x60a060405234801561000f575f5ffd5b5060405161164138038061164183398181016040528101906100319190610272565b33600161005061004561011060201b60201c565b61013960201b60201c565b5f01819055505f73ffffffffffffffffffffffffffffffffffffffff168173ffffffffffffffffffffffffffffffffffffffff16036100c6575f6040517f1e4fbdf70000000000000000000000000000000000000000000000000000000081526004016100bd91906102ac565b60405180910390fd5b6100d58161014260201b60201c565b508073ffffffffffffffffffffffffffffffffffffffff1660808173ffffffffffffffffffffffffffffffffffffffff1681525050506102c5565b5f7f9b779b17422d0df92223018b32b4d1fa46e071723d6817e2486d003becc55f005f1b905090565b5f819050919050565b5f5f5f9054906101000a900473ffffffffffffffffffffffffffffffffffffffff169050815f5f6101000a81548173ffffffffffffffffffffffffffffffffffffffff021916908373ffffffffffffffffffffffffffffffffffffffff1602179055508173ffffffffffffffffffffffffffffffffffffffff168173ffffffffffffffffffffffffffffffffffffffff167f8be0079c531659141344cd1fd0a4f28419497f9722a3daafe3b4186f6b6457e060405160405180910390a35050565b5f5ffd5b5f73ffffffffffffffffffffffffffffffffffffffff82169050919050565b5f61023082610207565b9050919050565b5f61024182610226565b9050919050565b61025181610237565b811461025b575f5ffd5b50565b5f8151905061026c81610248565b92915050565b5f6020828403121561028757610286610203565b5b5f6102948482850161025e565b91505092915050565b6102a681610226565b82525050565b5f6020820190506102bf5f83018461029d565b92915050565b60805161133a6103075f395f81816102e7015281816105150152818161063201528181610800015281816109df01528181610b240152610e17015261133a5ff3fe608060405234801561000f575f5ffd5b50600436106100e8575f3560e01c8063853828b61161008a578063b6b55f2511610064578063b6b55f2514610238578063ef8b30f714610268578063f2fde38b14610298578063f5eb42dc146102b4576100e8565b8063853828b6146101de5780638da5cb5b146101fc578063b131da401461021a576100e8565b80632e1a7d4d116100c65780632e1a7d4d1461016a5780633a98ef391461019a578063715018a6146101b857806374de4ec4146101c2576100e8565b806301e1d114146100ec5780630a28a4771461010a5780632c62fa101461013a575b5f5ffd5b6100f46102e4565b604051610101919061104e565b60405180910390f35b610124600480360381019061011f9190611095565b610382565b604051610131919061104e565b60405180910390f35b610154600480360381019061014f919061111a565b610393565b604051610161919061104e565b60405180910390f35b610184600480360381019061017f9190611095565b6103e1565b604051610191919061104e565b60405180910390f35b6101a2610598565b6040516101af919061104e565b60405180910390f35b6101c061059e565b005b6101dc60048036038101906101d79190611095565b6105b1565b005b6101e6610693565b6040516101f3919061104e565b60405180910390f35b61020461087a565b6040516102119190611154565b60405180910390f35b6102226108a1565b60405161022f919061104e565b60405180910390f35b610252600480360381019061024d9190611095565b6108e9565b60405161025f919061104e565b60405180910390f35b610282600480360381019061027d9190611095565b610a63565b60405161028f919061104e565b60405180910390f35b6102b260048036038101906102ad919061111a565b610a74565b005b6102ce60048036038101906102c9919061111a565b610af8565b6040516102db919061104e565b60405180910390f35b5f7f000000000000000000000000000000000000000000000000000000000000000073ffffffffffffffffffffffffffffffffffffffff166370a08231306040518263ffffffff1660e01b815260040161033e9190611154565b602060405180830381865afa158015610359573d5f5f3e3d5ffd5b505050506040513d601f19601f8201168201806040525081019061037d9190611181565b905090565b5f61038c82610b0d565b9050919050565b5f6103da60025f8473ffffffffffffffffffffffffffffffffffffffff1673ffffffffffffffffffffffffffffffffffffffff1681526020019081526020015f2054610b0d565b9050919050565b5f6103ea610bd7565b5f8203610423576040517f9811e0c700000000000000000000000000000000000000000000000000000000815260040160405180910390fd5b8160025f3373ffffffffffffffffffffffffffffffffffffffff1673ffffffffffffffffffffffffffffffffffffffff1681526020019081526020015f2054101561049a576040517f3999656700000000000000000000000000000000000000000000000000000000815260040160405180910390fd5b6104a382610b0d565b90508160025f3373ffffffffffffffffffffffffffffffffffffffff1673ffffffffffffffffffffffffffffffffffffffff1681526020019081526020015f205f8282546104f191906111d9565b925050819055508160015f82825461050991906111d9565b9250508190555061053b7f00000000000000000000000000000000000000000000000000000000000000003383610bf9565b3373ffffffffffffffffffffffffffffffffffffffff167ff279e6a1f5e320cca91135676d9cb6e44ca8a08c0b88342bcdb1144f6511b568828460405161058392919061120c565b60405180910390a2610593610c4c565b919050565b60015481565b6105a6610c66565b6105af5f610ced565b565b6105b9610c66565b5f81036105f2576040517f1f2a200500000000000000000000000000000000000000000000000000000000815260040160405180910390fd5b5f6001540361062d576040517f9811e0c700000000000000000000000000000000000000000000000000000000815260040160405180910390fd5b6106597f0000000000000000000000000000000000000000000000000000000000000000333084610dae565b7fde88a922e0d3b88b24e9623efeb464919c6bf9f66857a65e2bfcf2ce87a9433d81604051610688919061104e565b60405180910390a150565b5f5f60025f3373ffffffffffffffffffffffffffffffffffffffff1673ffffffffffffffffffffffffffffffffffffffff1681526020019081526020015f205490505f810361070e576040517f9811e0c700000000000000000000000000000000000000000000000000000000815260040160405180910390fd5b8060025f3373ffffffffffffffffffffffffffffffffffffffff1673ffffffffffffffffffffffffffffffffffffffff1681526020019081526020015f20541015610785576040517f3999656700000000000000000000000000000000000000000000000000000000815260040160405180910390fd5b61078e81610b0d565b91508060025f3373ffffffffffffffffffffffffffffffffffffffff1673ffffffffffffffffffffffffffffffffffffffff1681526020019081526020015f205f8282546107dc91906111d9565b925050819055508060015f8282546107f491906111d9565b925050819055506108267f00000000000000000000000000000000000000000000000000000000000000003384610bf9565b3373ffffffffffffffffffffffffffffffffffffffff167ff279e6a1f5e320cca91135676d9cb6e44ca8a08c0b88342bcdb1144f6511b568838360405161086e92919061120c565b60405180910390a25090565b5f5f5f9054906101000a900473ffffffffffffffffffffffffffffffffffffffff16905090565b5f5f600154036108bb57670de0b6b3a764000090506108e6565b600154670de0b6b3a76400006108cf6102e4565b6108d99190611233565b6108e391906112a1565b90505b90565b5f6108f2610bd7565b5f820361092b576040517f1f2a200500000000000000000000000000000000000000000000000000000000815260040160405180910390fd5b61093482610e03565b90505f810361096f576040517f9811e0c700000000000000000000000000000000000000000000000000000000815260040160405180910390fd5b8060025f3373ffffffffffffffffffffffffffffffffffffffff1673ffffffffffffffffffffffffffffffffffffffff1681526020019081526020015f205f8282546109bb91906112d1565b925050819055508060015f8282546109d391906112d1565b92505081905550610a067f0000000000000000000000000000000000000000000000000000000000000000333085610dae565b3373ffffffffffffffffffffffffffffffffffffffff167f90890809c654f11d6e72a28fa60149770a0d11ec6c92319d6ceb2bb0a4ea1a158383604051610a4e92919061120c565b60405180910390a2610a5e610c4c565b919050565b5f610a6d82610e03565b9050919050565b610a7c610c66565b5f73ffffffffffffffffffffffffffffffffffffffff168173ffffffffffffffffffffffffffffffffffffffff1603610aec575f6040517f1e4fbdf7000000000000000000000000000000000000000000000000000000008152600401610ae39190611154565b60405180910390fd5b610af581610ced565b50565b6002602052805f5260405f205f915090505481565b5f5f60015403610b1f57819050610bd2565b6001547f000000000000000000000000000000000000000000000000000000000000000073ffffffffffffffffffffffffffffffffffffffff166370a08231306040518263ffffffff1660e01b8152600401610b7b9190611154565b602060405180830381865afa158015610b96573d5f5f3e3d5ffd5b505050506040513d601f19601f82011682018060405250810190610bba9190611181565b83610bc59190611233565b610bcf91906112a1565b90505b919050565b610bdf610ecd565b6002610bf1610bec610f0e565b610f37565b5f0181905550565b610c068383836001610f40565b610c4757826040517f5274afe7000000000000000000000000000000000000000000000000000000008152600401610c3e9190611154565b60405180910390fd5b505050565b6001610c5e610c59610f0e565b610f37565b5f0181905550565b610c6e610fa2565b73ffffffffffffffffffffffffffffffffffffffff16610c8c61087a565b73ffffffffffffffffffffffffffffffffffffffff1614610ceb57610caf610fa2565b6040517f118cdaa7000000000000000000000000000000000000000000000000000000008152600401610ce29190611154565b60405180910390fd5b565b5f5f5f9054906101000a900473ffffffffffffffffffffffffffffffffffffffff169050815f5f6101000a81548173ffffffffffffffffffffffffffffffffffffffff021916908373ffffffffffffffffffffffffffffffffffffffff1602179055508173ffffffffffffffffffffffffffffffffffffffff168173ffffffffffffffffffffffffffffffffffffffff167f8be0079c531659141344cd1fd0a4f28419497f9722a3daafe3b4186f6b6457e060405160405180910390a35050565b610dbc848484846001610fa9565b610dfd57836040517f5274afe7000000000000000000000000000000000000000000000000000000008152600401610df49190611154565b60405180910390fd5b50505050565b5f5f60015403610e1557819050610ec8565b7f000000000000000000000000000000000000000000000000000000000000000073ffffffffffffffffffffffffffffffffffffffff166370a08231306040518263ffffffff1660e01b8152600401610e6e9190611154565b602060405180830381865afa158015610e89573d5f5f3e3d5ffd5b505050506040513d601f19601f82011682018060405250810190610ead9190611181565b60015483610ebb9190611233565b610ec591906112a1565b90505b919050565b610ed561101a565b15610f0c576040517f3ee5aeb500000000000000000000000000000000000000000000000000000000815260040160405180910390fd5b565b5f7f9b779b17422d0df92223018b32b4d1fa46e071723d6817e2486d003becc55f005f1b905090565b5f819050919050565b5f5f63a9059cbb60e01b9050604051815f525f1960601c86166004528460245260205f60445f5f8b5af1925060015f51148316610f94578383151615610f88573d5f823e3d81fd5b5f873b113d1516831692505b806040525050949350505050565b5f33905090565b5f5f6323b872dd60e01b9050604051815f525f1960601c87166004525f1960601c86166024528460445260205f60645f5f8c5af1925060015f51148316611007578383151615610ffb573d5f823e3d81fd5b5f883b113d1516831692505b806040525f606052505095945050505050565b5f600261102d611028610f0e565b610f37565b5f015414905090565b5f819050919050565b61104881611036565b82525050565b5f6020820190506110615f83018461103f565b92915050565b5f5ffd5b61107481611036565b811461107e575f5ffd5b50565b5f8135905061108f8161106b565b92915050565b5f602082840312156110aa576110a9611067565b5b5f6110b784828501611081565b91505092915050565b5f73ffffffffffffffffffffffffffffffffffffffff82169050919050565b5f6110e9826110c0565b9050919050565b6110f9816110df565b8114611103575f5ffd5b50565b5f81359050611114816110f0565b92915050565b5f6020828403121561112f5761112e611067565b5b5f61113c84828501611106565b91505092915050565b61114e816110df565b82525050565b5f6020820190506111675f830184611145565b92915050565b5f8151905061117b8161106b565b92915050565b5f6020828403121561119657611195611067565b5b5f6111a38482850161116d565b91505092915050565b7f4e487b71000000000000000000000000000000000000000000000000000000005f52601160045260245ffd5b5f6111e382611036565b91506111ee83611036565b9250828203905081811115611206576112056111ac565b5b92915050565b5f60408201905061121f5f83018561103f565b61122c602083018461103f565b9392505050565b5f61123d82611036565b915061124883611036565b925082820261125681611036565b9150828204841483151761126d5761126c6111ac565b5b5092915050565b7f4e487b71000000000000000000000000000000000000000000000000000000005f52601260045260245ffd5b5f6112ab82611036565b91506112b683611036565b9250826112c6576112c5611274565b5b828204905092915050565b5f6112db82611036565b91506112e683611036565b92508282019050808211156112fe576112fd6111ac565b5b9291505056fea2646970667358221220cff8975a00c723ee8d56a17b1b6d39ace1e78e87b7392a1be6da995408dee55a64736f6c63430008210033","linkReferences":{}},"methodIdentifiers":{"addReward(uint256)":"74de4ec4","assetsOf(address)":"2c62fa10","currentRatio()":"b131da40","deposit(uint256)":"b6b55f25","owner()":"8da5cb5b","previewDeposit(uint256)":"ef8b30f7","previewWithdraw(uint256)":"0a28a477","renounceOwnership()":"715018a6","sharesOf(address)":"f5eb42dc","totalAssets()":"01e1d114","totalShares()":"3a98ef39","transferOwnership(address)":"f2fde38b","withdraw(uint256)":"2e1a7d4d","withdrawAll()":"853828b6"},"id":26}