{"abi":[{"type":"constructor","inputs":[{"name":"_asset","type":"address","internalType":"contract IERC20"}],"stateMutability":"nonpayable"},{"type":"function","name":"deposit","inputs":[{"name":"assets","type":"uint256","internalType":"uint256"}],"outputs":[{"name":"shares","type":"uint256","internalType":"uint256"}],"stateMutability":"nonpayable"},{"type":"function","name":"owner","inputs":[],"outputs":[{"name":"","type":"address","internalType":"address"}],"stateMutability":"view"},{"type":"function","name":"previewDeposit","inputs":[{"name":"assets","type":"uint256","internalType":"uint256"}],"outputs":[{"name":"shares","type":"uint256","internalType":"uint256"}],"stateMutability":"view"},{"type":"function","name":"previewWithdraw","inputs":[{"name":"shares","type":"uint256","internalType":"uint256"}],"outputs":[{"name":"assets","type":"uint256","internalType":"uint256"}],"stateMutability":"view"},{"type":"function","name":"renounceOwnership","inputs":[],"outputs":[],"stateMutability":"nonpayable"},{"type":"function","name":"sharesOf","inputs":[{"name":"","type":"address","internalType":"address"}],"outputs":[{"name":"","type":"uint256","internalType":"uint256"}],"stateMutability":"view"},{"type":"function","name":"totalShares","inputs":[],"outputs":[{"name":"","type":"uint256","internalType":"uint256"}],"stateMutability":"view"},{"type":"function","name":"transferOwnership","inputs":[{"name":"newOwner","type":"address","internalType":"address"}],"outputs":[],"stateMutability":"nonpayable"},{"type":"function","name":"withdraw","inputs":[{"name":"shares","type":"uint256","internalType":"uint256"}],"outputs":[{"name":"assets","type":"uint256","internalType":"uint256"}],"stateMutability":"nonpayable"},{"type":"function","name":"withdrawAll","inputs":[],"outputs":[{"name":"assets","type":"uint256","internalType":"uint256"}],"stateMutability":"nonpayable"},{"type":"event","name":"Deposit","inputs":[{"name":"user","type":"address","indexed":true,"internalType":"address"},{"name":"assets","type":"uint256","indexed":false,"internalType":"uint256"},{"name":"shares","type":"uint256","indexed":false,"internalType":"uint256"}],"anonymous":false},{"type":"event","name":"OwnershipTransferred","inputs":[{"name":"previousOwner","type":"address","indexed":true,"internalType":"address"},{"name":"newOwner","type":"address","indexed":true,"internalType":"address"}],"anonymous":false},{"type":"event","name":"Withdraw","inputs":[{"name":"user","type":"address","indexed":true,"internalType":"address"},{"name":"assets","type":"uint256","indexed":false,"internalType":"uint256"},{"name":"shares","type":"uint256","indexed":false,"internalType":"uint256"}],"anonymous":false},{"type":"error","name":"InsufficientShares","inputs":[]},{"type":"error","name":"OwnableInvalidOwner","inputs":[{"name":"owner","type":"address","internalType":"address"}]},{"type":"error","name":"OwnableUnauthorizedAccount","inputs":[{"name":"account","type":"address","internalType":"address"}]},{"type":"error","name":"ReentrancyGuardReentrantCall","inputs":[]},{"type":"error","name":"SafeERC20FailedOperation","inputs":[{"name":"token","type":"address","internalType":"address"}]},{"type":"error","name":"ZeroAmount","inputs":[]},{"type":"error","name":"ZeroShares","inputs":[]}],"bytecode":{"object":"0x60a060405234801562000010575f80fd5b50604051620011d9380380620011d983398181016040528101906200003691906200028a565b336001620000596200004d6200011f60201b60201c565b6200014860201b60201c565b5f01819055505f73ffffffffffffffffffffffffffffffffffffffff168173ffffffffffffffffffffffffffffffffffffffff1603620000d2575f6040517f1e4fbdf7000000000000000000000000000000000000000000000000000000008152600401620000c99190620002cb565b60405180910390fd5b620000e3816200015160201b60201c565b508073ffffffffffffffffffffffffffffffffffffffff1660808173ffffffffffffffffffffffffffffffffffffffff168152505050620002e6565b5f7f9b779b17422d0df92223018b32b4d1fa46e071723d6817e2486d003becc55f005f1b905090565b5f819050919050565b5f805f9054906101000a900473ffffffffffffffffffffffffffffffffffffffff169050815f806101000a81548173ffffffffffffffffffffffffffffffffffffffff021916908373ffffffffffffffffffffffffffffffffffffffff1602179055508173ffffffffffffffffffffffffffffffffffffffff168173ffffffffffffffffffffffffffffffffffffffff167f8be0079c531659141344cd1fd0a4f28419497f9722a3daafe3b4186f6b6457e060405160405180910390a35050565b5f80fd5b5f73ffffffffffffffffffffffffffffffffffffffff82169050919050565b5f620002418262000216565b9050919050565b5f620002548262000235565b9050919050565b620002668162000248565b811462000271575f80fd5b50565b5f8151905062000284816200025b565b92915050565b5f60208284031215620002a257620002a162000212565b5b5f620002b18482850162000274565b91505092915050565b620002c58162000235565b82525050565b5f602082019050620002e05f830184620002ba565b92915050565b608051610ec5620003145f395f81816103550152818161056a015281816106af015261094d0152610ec55ff3fe608060405234801561000f575f80fd5b506004361061009c575f3560e01c80638da5cb5b116100645780638da5cb5b14610146578063b6b55f2514610164578063ef8b30f714610194578063f2fde38b146101c4578063f5eb42dc146101e05761009c565b80630a28a477146100a05780632e1a7d4d146100d05780633a98ef3914610100578063715018a61461011e578063853828b614610128575b5f80fd5b6100ba60048036038101906100b59190610bf8565b610210565b6040516100c79190610c32565b60405180910390f35b6100ea60048036038101906100e59190610bf8565b610221565b6040516100f79190610c32565b60405180910390f35b6101086103d8565b6040516101159190610c32565b60405180910390f35b6101266103de565b005b6101306103f1565b60405161013d9190610c32565b60405180910390f35b61014e61044d565b60405161015b9190610c8a565b60405180910390f35b61017e60048036038101906101799190610bf8565b610474565b60405161018b9190610c32565b60405180910390f35b6101ae60048036038101906101a99190610bf8565b6105ee565b6040516101bb9190610c32565b60405180910390f35b6101de60048036038101906101d99190610ccd565b6105ff565b005b6101fa60048036038101906101f59190610ccd565b610683565b6040516102079190610c32565b60405180910390f35b5f61021a82610698565b9050919050565b5f61022a610762565b5f8203610263576040517f9811e0c700000000000000000000000000000000000000000000000000000000815260040160405180910390fd5b8160025f3373ffffffffffffffffffffffffffffffffffffffff1673ffffffffffffffffffffffffffffffffffffffff1681526020019081526020015f205410156102da576040517f3999656700000000000000000000000000000000000000000000000000000000815260040160405180910390fd5b6102e382610698565b90508160025f3373ffffffffffffffffffffffffffffffffffffffff1673ffffffffffffffffffffffffffffffffffffffff1681526020019081526020015f205f8282546103319190610d25565b925050819055508160015f8282546103499190610d25565b9250508190555061037b7f00000000000000000000000000000000000000000000000000000000000000003383610784565b3373ffffffffffffffffffffffffffffffffffffffff167ff279e6a1f5e320cca91135676d9cb6e44ca8a08c0b88342bcdb1144f6511b56882846040516103c3929190610d58565b60405180910390a26103d36107d7565b919050565b60015481565b6103e66107f1565b6103ef5f610878565b565b5f6103fa610762565b61044060025f3373ffffffffffffffffffffffffffffffffffffffff1673ffffffffffffffffffffffffffffffffffffffff1681526020019081526020015f2054610221565b905061044a6107d7565b90565b5f805f9054906101000a900473ffffffffffffffffffffffffffffffffffffffff16905090565b5f61047d610762565b5f82036104b6576040517f1f2a200500000000000000000000000000000000000000000000000000000000815260040160405180910390fd5b6104bf82610939565b90505f81036104fa576040517f9811e0c700000000000000000000000000000000000000000000000000000000815260040160405180910390fd5b8060025f3373ffffffffffffffffffffffffffffffffffffffff1673ffffffffffffffffffffffffffffffffffffffff1681526020019081526020015f205f8282546105469190610d7f565b925050819055508060015f82825461055e9190610d7f565b925050819055506105917f0000000000000000000000000000000000000000000000000000000000000000333085610a03565b3373ffffffffffffffffffffffffffffffffffffffff167f90890809c654f11d6e72a28fa60149770a0d11ec6c92319d6ceb2bb0a4ea1a1583836040516105d9929190610d58565b60405180910390a26105e96107d7565b919050565b5f6105f882610939565b9050919050565b6106076107f1565b5f73ffffffffffffffffffffffffffffffffffffffff168173ffffffffffffffffffffffffffffffffffffffff1603610677575f6040517f1e4fbdf700000000000000000000000000000000000000000000000000000000815260040161066e9190610c8a565b60405180910390fd5b61068081610878565b50565b6002602052805f5260405f205f915090505481565b5f80600154036106aa5781905061075d565b6001547f000000000000000000000000000000000000000000000000000000000000000073ffffffffffffffffffffffffffffffffffffffff166370a08231306040518263ffffffff1660e01b81526004016107069190610c8a565b602060405180830381865afa158015610721573d5f803e3d5ffd5b505050506040513d601f19601f820116820180604052508101906107459190610dc6565b836107509190610df1565b61075a9190610e5f565b90505b919050565b61076a610a58565b600261077c610777610a99565b610ac2565b5f0181905550565b6107918383836001610acb565b6107d257826040517f5274afe70000000000000000000000000000000000000000000000000000000081526004016107c99190610c8a565b60405180910390fd5b505050565b60016107e96107e4610a99565b610ac2565b5f0181905550565b6107f9610b2d565b73ffffffffffffffffffffffffffffffffffffffff1661081761044d565b73ffffffffffffffffffffffffffffffffffffffff16146108765761083a610b2d565b6040517f118cdaa700000000000000000000000000000000000000000000000000000000815260040161086d9190610c8a565b60405180910390fd5b565b5f805f9054906101000a900473ffffffffffffffffffffffffffffffffffffffff169050815f806101000a81548173ffffffffffffffffffffffffffffffffffffffff021916908373ffffffffffffffffffffffffffffffffffffffff1602179055508173ffffffffffffffffffffffffffffffffffffffff168173ffffffffffffffffffffffffffffffffffffffff167f8be0079c531659141344cd1fd0a4f28419497f9722a3daafe3b4186f6b6457e060405160405180910390a35050565b5f806001540361094b578190506109fe565b7f000000000000000000000000000000000000000000000000000000000000000073ffffffffffffffffffffffffffffffffffffffff166370a08231306040518263ffffffff1660e01b81526004016109a49190610c8a565b602060405180830381865afa1580156109bf573d5f803e3d5ffd5b505050506040513d601f19601f820116820180604052508101906109e39190610dc6565b600154836109f19190610df1565b6109fb9190610e5f565b90505b919050565b610a11848484846001610b34565b610a5257836040517f5274afe7000000000000000000000000000000000000000000000000000000008152600401610a499190610c8a565b60405180910390fd5b50505050565b610a60610ba5565b15610a97576040517f3ee5aeb500000000000000000000000000000000000000000000000000000000815260040160405180910390fd5b565b5f7f9b779b17422d0df92223018b32b4d1fa46e071723d6817e2486d003becc55f005f1b905090565b5f819050919050565b5f8063a9059cbb60e01b9050604051815f525f1960601c86166004528460245260205f60445f808b5af1925060015f51148316610b1f578383151615610b13573d5f823e3d81fd5b5f873b113d1516831692505b806040525050949350505050565b5f33905090565b5f806323b872dd60e01b9050604051815f525f1960601c87166004525f1960601c86166024528460445260205f60645f808c5af1925060015f51148316610b92578383151615610b86573d5f823e3d81fd5b5f883b113d1516831692505b806040525f606052505095945050505050565b5f6002610bb8610bb3610a99565b610ac2565b5f015414905090565b5f80fd5b5f819050919050565b610bd781610bc5565b8114610be1575f80fd5b50565b5f81359050610bf281610bce565b92915050565b5f60208284031215610c0d57610c0c610bc1565b5b5f610c1a84828501610be4565b91505092915050565b610c2c81610bc5565b82525050565b5f602082019050610c455f830184610c23565b92915050565b5f73ffffffffffffffffffffffffffffffffffffffff82169050919050565b5f610c7482610c4b565b9050919050565b610c8481610c6a565b82525050565b5f602082019050610c9d5f830184610c7b565b92915050565b610cac81610c6a565b8114610cb6575f80fd5b50565b5f81359050610cc781610ca3565b92915050565b5f60208284031215610ce257610ce1610bc1565b5b5f610cef84828501610cb9565b91505092915050565b7f4e487b71000000000000000000000000000000000000000000000000000000005f52601160045260245ffd5b5f610d2f82610bc5565b9150610d3a83610bc5565b9250828203905081811115610d5257610d51610cf8565b5b92915050565b5f604082019050610d6b5f830185610c23565b610d786020830184610c23565b9392505050565b5f610d8982610bc5565b9150610d9483610bc5565b9250828201905080821115610dac57610dab610cf8565b5b92915050565b5f81519050610dc081610bce565b92915050565b5f60208284031215610ddb57610dda610bc1565b5b5f610de884828501610db2565b91505092915050565b5f610dfb82610bc5565b9150610e0683610bc5565b9250828202610e1481610bc5565b91508282048414831517610e2b57610e2a610cf8565b5b5092915050565b7f4e487b71000000000000000000000000000000000000000000000000000000005f52601260045260245ffd5b5f610e6982610bc5565b9150610e7483610bc5565b925082610e8457610e83610e32565b5b82820490509291505056fea2646970667358221220107606d215c78bc8bebfec7c2d1ef0dbc570149a3f6adfd6eba5824aac1ef3d864736f6c63430008140033","linkReferences":{}},"methodIdentifiers":{"deposit(uint256)":"b6b55f25","owner()":"8da5cb5b","previewDeposit(uint256)":"ef8b30f7","previewWithdraw(uint256)":"0a28a477","renounceOwnership()":"715018a6","sharesOf(address)":"f5eb42dc","totalShares()":"3a98ef39","transferOwnership(address)":"f2fde38b","withdraw(uint256)":"2e1a7d4d","withdrawAll()":"853828b6"},"id":33}